{
  "address": "0xFC43EA1740A26cA4E7EB9E9cB5623FCB4f7020f1",
  "abi": [
    {
      "inputs": [],
      "stateMutability": "nonpayable",
      "type": "constructor"
    },
    {
      "inputs": [],
      "name": "Insufficient_Bet",
      "type": "error"
    },
    {
      "inputs": [],
      "name": "fundme_NotOwner",
      "type": "error"
    },
    {
      "inputs": [],
      "name": "MINIMUM_ETHER",
      "outputs": [
        {
          "internalType": "uint256",
          "name": "",
          "type": "uint256"
        }
      ],
      "stateMutability": "view",
      "type": "function"
    },
    {
      "inputs": [],
      "name": "fund",
      "outputs": [],
      "stateMutability": "payable",
      "type": "function"
    },
    {
      "inputs": [
        {
          "internalType": "uint256",
          "name": "",
          "type": "uint256"
        }
      ],
      "name": "gamblers",
      "outputs": [
        {
          "internalType": "address",
          "name": "",
          "type": "address"
        }
      ],
      "stateMutability": "view",
      "type": "function"
    },
    {
      "inputs": [
        {
          "internalType": "address",
          "name": "",
          "type": "address"
        }
      ],
      "name": "gamblersToAmountBet",
      "outputs": [
        {
          "internalType": "uint256",
          "name": "",
          "type": "uint256"
        }
      ],
      "stateMutability": "view",
      "type": "function"
    },
    {
      "inputs": [],
      "name": "i_owner",
      "outputs": [
        {
          "internalType": "address",
          "name": "",
          "type": "address"
        }
      ],
      "stateMutability": "view",
      "type": "function"
    }
  ],
  "transactionHash": "0xd47a9df543a03f03592ef9b97234c572d30dbd94af0966ed181d0db396a379bf",
  "args": [],
  "numDeployments": 1,
  "solcInputHash": "b4e9ca91838596d39885d759c67d1df7",
  "bytecode": "0x60a060405234801561001057600080fd5b503373ffffffffffffffffffffffffffffffffffffffff1660808173ffffffffffffffffffffffffffffffffffffffff168152505060805161048c610060600039600061028a015261048c6000f3fe60806040526004361061004a5760003560e01c80632211d69c1461004f5780632aaf9c661461007a5780632d9f7a08146100b7578063b60d4288146100f4578063dba6335f146100fe575b600080fd5b34801561005b57600080fd5b50610064610129565b60405161007191906102c5565b60405180910390f35b34801561008657600080fd5b506100a1600480360381019061009c9190610311565b610135565b6040516100ae919061037f565b60405180910390f35b3480156100c357600080fd5b506100de60048036038101906100d991906103c6565b610174565b6040516100eb91906102c5565b60405180910390f35b6100fc61018c565b005b34801561010a57600080fd5b50610113610288565b604051610120919061037f565b60405180910390f35b67016345785d8a000081565b6001818154811061014557600080fd5b906000526020600020016000915054906101000a900473ffffffffffffffffffffffffffffffffffffffff1681565b60006020528060005260406000206000915090505481565b67016345785d8a00003410156101ce576040517f0ab0c61e00000000000000000000000000000000000000000000000000000000815260040160405180910390fd5b346000803373ffffffffffffffffffffffffffffffffffffffff1673ffffffffffffffffffffffffffffffffffffffff168152602001908152602001600020600082825461021c9190610422565b925050819055506001339080600181540180825580915050600190039060005260206000200160009091909190916101000a81548173ffffffffffffffffffffffffffffffffffffffff021916908373ffffffffffffffffffffffffffffffffffffffff160217905550565b7f000000000000000000000000000000000000000000000000000000000000000081565b6000819050919050565b6102bf816102ac565b82525050565b60006020820190506102da60008301846102b6565b92915050565b600080fd5b6102ee816102ac565b81146102f957600080fd5b50565b60008135905061030b816102e5565b92915050565b600060208284031215610327576103266102e0565b5b6000610335848285016102fc565b91505092915050565b600073ffffffffffffffffffffffffffffffffffffffff82169050919050565b60006103698261033e565b9050919050565b6103798161035e565b82525050565b60006020820190506103946000830184610370565b92915050565b6103a38161035e565b81146103ae57600080fd5b50565b6000813590506103c08161039a565b92915050565b6000602082840312156103dc576103db6102e0565b5b60006103ea848285016103b1565b91505092915050565b7f4e487b7100000000000000000000000000000000000000000000000000000000600052601160045260246000fd5b600061042d826102ac565b9150610438836102ac565b92508282019050808211156104505761044f6103f3565b5b9291505056fea2646970667358221220a6b93923ebf91bb9e152a4ef152d72739d463a2eb502dc4c64fed51c2887ef4b64736f6c63430008120033",
  "devdoc": {
    "kind": "dev",
    "methods": {},
    "version": 1
  },
  "userdoc": {
    "kind": "user",
    "methods": {},
    "version": 1
  },
  "storageLayout": {
    "storage": [
      {
        "astId": 4296,
        "contract": "contracts/Fund.sol:Fund",
        "label": "gamblersToAmountBet",
        "offset": 0,
        "slot": "0",
        "type": "t_mapping(t_address,t_uint256)"
      },
      {
        "astId": 4299,
        "contract": "contracts/Fund.sol:Fund",
        "label": "gamblers",
        "offset": 0,
        "slot": "1",
        "type": "t_array(t_address)dyn_storage"
      }
    ],
    "types": {
      "t_address": {
        "encoding": "inplace",
        "label": "address",
        "numberOfBytes": "20"
      },
      "t_array(t_address)dyn_storage": {
        "base": "t_address",
        "encoding": "dynamic_array",
        "label": "address[]",
        "numberOfBytes": "32"
      },
      "t_mapping(t_address,t_uint256)": {
        "encoding": "mapping",
        "key": "t_address",
        "label": "mapping(address => uint256)",
        "numberOfBytes": "32",
        "value": "t_uint256"
      },
      "t_uint256": {
        "encoding": "inplace",
        "label": "uint256",
        "numberOfBytes": "32"
      }
    }
  }
}