{
  "address": "0x7C60C9843FbeC0Fb18b38Eef6A10fc33F6bdd2a9",
  "abi": [
    {
      "inputs": [],
      "stateMutability": "nonpayable",
      "type": "constructor"
    },
    {
      "inputs": [],
      "name": "MINIMUM_ETHER",
      "outputs": [
        {
          "internalType": "uint256",
          "name": "",
          "type": "uint256"
        }
      ],
      "stateMutability": "view",
      "type": "function"
    },
    {
      "inputs": [],
      "name": "fund",
      "outputs": [],
      "stateMutability": "payable",
      "type": "function"
    },
    {
      "inputs": [
        {
          "internalType": "uint256",
          "name": "",
          "type": "uint256"
        }
      ],
      "name": "gamblers",
      "outputs": [
        {
          "internalType": "address",
          "name": "",
          "type": "address"
        }
      ],
      "stateMutability": "view",
      "type": "function"
    },
    {
      "inputs": [
        {
          "internalType": "address",
          "name": "",
          "type": "address"
        }
      ],
      "name": "gamblersToAmountBet",
      "outputs": [
        {
          "internalType": "uint256",
          "name": "",
          "type": "uint256"
        }
      ],
      "stateMutability": "view",
      "type": "function"
    },
    {
      "inputs": [],
      "name": "getOwner",
      "outputs": [
        {
          "internalType": "address",
          "name": "",
          "type": "address"
        }
      ],
      "stateMutability": "view",
      "type": "function"
    },
    {
      "inputs": [],
      "name": "i_owner",
      "outputs": [
        {
          "internalType": "address",
          "name": "",
          "type": "address"
        }
      ],
      "stateMutability": "view",
      "type": "function"
    }
  ],
  "transactionHash": "0x3cd7d24ffab87b83e3ef1ae6f258db0bda18a0aff4c7b988ab0ee72784886095",
  "args": [],
  "numDeployments": 4,
  "solcInputHash": "c63a8b3aa760f5c988d82ed2644cb944",
  "bytecode": "0x60a060405234801561001057600080fd5b503373ffffffffffffffffffffffffffffffffffffffff1660808173ffffffffffffffffffffffffffffffffffffffff1681525050608051610570610067600039600081816101c601526102f101526105706000f3fe6080604052600436106100555760003560e01c80632211d69c1461005a5780632aaf9c66146100855780632d9f7a08146100c2578063893d20e8146100ff578063b60d42881461012a578063dba6335f14610134575b600080fd5b34801561006657600080fd5b5061006f61015f565b60405161007c919061032c565b60405180910390f35b34801561009157600080fd5b506100ac60048036038101906100a79190610378565b61016b565b6040516100b991906103e6565b60405180910390f35b3480156100ce57600080fd5b506100e960048036038101906100e4919061042d565b6101aa565b6040516100f6919061032c565b60405180910390f35b34801561010b57600080fd5b506101146101c2565b60405161012191906103e6565b60405180910390f35b6101326101ea565b005b34801561014057600080fd5b506101496102ef565b60405161015691906103e6565b60405180910390f35b67016345785d8a000081565b6001818154811061017b57600080fd5b906000526020600020016000915054906101000a900473ffffffffffffffffffffffffffffffffffffffff1681565b60006020528060005260406000206000915090505481565b60007f0000000000000000000000000000000000000000000000000000000000000000905090565b67016345785d8a0000341015610235576040517f08c379a000000000000000000000000000000000000000000000000000000000815260040161022c906104b7565b60405180910390fd5b346000803373ffffffffffffffffffffffffffffffffffffffff1673ffffffffffffffffffffffffffffffffffffffff16815260200190815260200160002060008282546102839190610506565b925050819055506001339080600181540180825580915050600190039060005260206000200160009091909190916101000a81548173ffffffffffffffffffffffffffffffffffffffff021916908373ffffffffffffffffffffffffffffffffffffffff160217905550565b7f000000000000000000000000000000000000000000000000000000000000000081565b6000819050919050565b61032681610313565b82525050565b6000602082019050610341600083018461031d565b92915050565b600080fd5b61035581610313565b811461036057600080fd5b50565b6000813590506103728161034c565b92915050565b60006020828403121561038e5761038d610347565b5b600061039c84828501610363565b91505092915050565b600073ffffffffffffffffffffffffffffffffffffffff82169050919050565b60006103d0826103a5565b9050919050565b6103e0816103c5565b82525050565b60006020820190506103fb60008301846103d7565b92915050565b61040a816103c5565b811461041557600080fd5b50565b60008135905061042781610401565b92915050565b60006020828403121561044357610442610347565b5b600061045184828501610418565b91505092915050565b600082825260208201905092915050565b7f6e6f7420656e6f75676874204554480000000000000000000000000000000000600082015250565b60006104a1600f8361045a565b91506104ac8261046b565b602082019050919050565b600060208201905081810360008301526104d081610494565b9050919050565b7f4e487b7100000000000000000000000000000000000000000000000000000000600052601160045260246000fd5b600061051182610313565b915061051c83610313565b9250828201905080821115610534576105336104d7565b5b9291505056fea26469706673582212204d0bbcf4399109a7eb5068ae7089a4ee4b2a08d3ca0e8ad75cc20bcd99445fb064736f6c63430008120033",
  "devdoc": {
    "kind": "dev",
    "methods": {},
    "version": 1
  },
  "userdoc": {
    "kind": "user",
    "methods": {},
    "version": 1
  },
  "storageLayout": {
    "storage": [
      {
        "astId": 5,
        "contract": "contracts/Fund.sol:Fund",
        "label": "gamblersToAmountBet",
        "offset": 0,
        "slot": "0",
        "type": "t_mapping(t_address,t_uint256)"
      },
      {
        "astId": 8,
        "contract": "contracts/Fund.sol:Fund",
        "label": "gamblers",
        "offset": 0,
        "slot": "1",
        "type": "t_array(t_address)dyn_storage"
      }
    ],
    "types": {
      "t_address": {
        "encoding": "inplace",
        "label": "address",
        "numberOfBytes": "20"
      },
      "t_array(t_address)dyn_storage": {
        "base": "t_address",
        "encoding": "dynamic_array",
        "label": "address[]",
        "numberOfBytes": "32"
      },
      "t_mapping(t_address,t_uint256)": {
        "encoding": "mapping",
        "key": "t_address",
        "label": "mapping(address => uint256)",
        "numberOfBytes": "32",
        "value": "t_uint256"
      },
      "t_uint256": {
        "encoding": "inplace",
        "label": "uint256",
        "numberOfBytes": "32"
      }
    }
  }
}