{
  "address": "0x3CB2415fCf72345EcFC6839DeEC23d2b4c596892",
  "abi": [
    {
      "inputs": [
        {
          "internalType": "uint256",
          "name": "_entryFee",
          "type": "uint256"
        }
      ],
      "stateMutability": "nonpayable",
      "type": "constructor"
    },
    {
      "anonymous": false,
      "inputs": [
        {
          "indexed": false,
          "internalType": "address",
          "name": "user",
          "type": "address"
        },
        {
          "indexed": false,
          "internalType": "uint256",
          "name": "amount",
          "type": "uint256"
        }
      ],
      "name": "UserEntered",
      "type": "event"
    },
    {
      "anonymous": false,
      "inputs": [
        {
          "indexed": false,
          "internalType": "address",
          "name": "user",
          "type": "address"
        },
        {
          "indexed": false,
          "internalType": "uint256",
          "name": "amount",
          "type": "uint256"
        }
      ],
      "name": "UserLost",
      "type": "event"
    },
    {
      "anonymous": false,
      "inputs": [
        {
          "indexed": false,
          "internalType": "address",
          "name": "user",
          "type": "address"
        },
        {
          "indexed": false,
          "internalType": "uint256",
          "name": "amount",
          "type": "uint256"
        }
      ],
      "name": "UserWon",
      "type": "event"
    },
    {
      "inputs": [],
      "name": "changeBytecode1",
      "outputs": [
        {
          "internalType": "uint256",
          "name": "",
          "type": "uint256"
        }
      ],
      "stateMutability": "pure",
      "type": "function"
    },
    {
      "inputs": [],
      "name": "enter",
      "outputs": [],
      "stateMutability": "payable",
      "type": "function"
    },
    {
      "inputs": [],
      "name": "entryFee",
      "outputs": [
        {
          "internalType": "uint256",
          "name": "",
          "type": "uint256"
        }
      ],
      "stateMutability": "view",
      "type": "function"
    },
    {
      "inputs": [
        {
          "internalType": "uint256",
          "name": "",
          "type": "uint256"
        }
      ],
      "name": "gamblers",
      "outputs": [
        {
          "internalType": "address",
          "name": "",
          "type": "address"
        }
      ],
      "stateMutability": "view",
      "type": "function"
    },
    {
      "inputs": [
        {
          "internalType": "address",
          "name": "",
          "type": "address"
        }
      ],
      "name": "gamblersToAmountBet",
      "outputs": [
        {
          "internalType": "uint256",
          "name": "",
          "type": "uint256"
        }
      ],
      "stateMutability": "view",
      "type": "function"
    },
    {
      "inputs": [],
      "name": "getBalance",
      "outputs": [
        {
          "internalType": "uint256",
          "name": "",
          "type": "uint256"
        }
      ],
      "stateMutability": "view",
      "type": "function"
    },
    {
      "inputs": [],
      "name": "getEntryFee",
      "outputs": [
        {
          "internalType": "uint256",
          "name": "",
          "type": "uint256"
        }
      ],
      "stateMutability": "view",
      "type": "function"
    },
    {
      "inputs": [],
      "name": "getOwner",
      "outputs": [
        {
          "internalType": "address",
          "name": "",
          "type": "address"
        }
      ],
      "stateMutability": "view",
      "type": "function"
    },
    {
      "inputs": [
        {
          "internalType": "address",
          "name": "user",
          "type": "address"
        }
      ],
      "name": "getUserEntryStatus",
      "outputs": [
        {
          "internalType": "bool",
          "name": "",
          "type": "bool"
        }
      ],
      "stateMutability": "view",
      "type": "function"
    },
    {
      "inputs": [],
      "name": "settleTeamResultLoss",
      "outputs": [],
      "stateMutability": "nonpayable",
      "type": "function"
    },
    {
      "inputs": [],
      "name": "settleTeamResultWon",
      "outputs": [],
      "stateMutability": "nonpayable",
      "type": "function"
    },
    {
      "inputs": [
        {
          "internalType": "address",
          "name": "",
          "type": "address"
        }
      ],
      "name": "users",
      "outputs": [
        {
          "internalType": "bool",
          "name": "hasEntered",
          "type": "bool"
        }
      ],
      "stateMutability": "view",
      "type": "function"
    },
    {
      "inputs": [],
      "name": "withdraw",
      "outputs": [],
      "stateMutability": "nonpayable",
      "type": "function"
    },
    {
      "stateMutability": "payable",
      "type": "receive"
    }
  ],
  "transactionHash": "0xa9d5736cb0feacf35c5f94fb3353cb0a20ffbc6ad8df7019761c93fc026a37ad",
  "args": [
    "1000000000000000000"
  ],
  "numDeployments": 3,
  "solcInputHash": "ca0136deac0f5907985726ed0ea52d48",
  "bytecode": "0x60c060405234801561001057600080fd5b50604051611067380380611067833981810160405281019061003291906100af565b3373ffffffffffffffffffffffffffffffffffffffff1660808173ffffffffffffffffffffffffffffffffffffffff16815250508060a08181525050506100dc565b600080fd5b6000819050919050565b61008c81610079565b811461009757600080fd5b50565b6000815190506100a981610083565b92915050565b6000602082840312156100c5576100c4610074565b5b60006100d38482850161009a565b91505092915050565b60805160a051610f3c61012b600039600081816102ee015281816104f8015281816106670152818161069601526109ae015260008181610371015281816103ff015261060b0152610f3c6000f3fe6080604052600436106100c65760003560e01c80637a53326f1161007f578063a87430ba11610059578063a87430ba14610263578063e586a4f0146102a0578063e97dcb62146102cb578063fc079c27146102d5576100cd565b80637a53326f146101d0578063893d20e81461020d578063a1b7cd5814610238576100cd565b8063072ea61c146100d257806312065fe0146100fd5780632aaf9c66146101285780632d9f7a08146101655780633ccfd60b146101a2578063608ca7cf146101b9576100cd565b366100cd57005b600080fd5b3480156100de57600080fd5b506100e76102ec565b6040516100f49190610acf565b60405180910390f35b34801561010957600080fd5b50610112610310565b60405161011f9190610acf565b60405180910390f35b34801561013457600080fd5b5061014f600480360381019061014a9190610b1b565b610318565b60405161015c9190610b89565b60405180910390f35b34801561017157600080fd5b5061018c60048036038101906101879190610bd0565b610357565b6040516101999190610acf565b60405180910390f35b3480156101ae57600080fd5b506101b761036f565b005b3480156101c557600080fd5b506101ce610466565b005b3480156101dc57600080fd5b506101f760048036038101906101f29190610bd0565b6105af565b6040516102049190610c18565b60405180910390f35b34801561021957600080fd5b50610222610607565b60405161022f9190610b89565b60405180910390f35b34801561024457600080fd5b5061024d61062f565b60405161025a9190610acf565b60405180910390f35b34801561026f57600080fd5b5061028a60048036038101906102859190610bd0565b610638565b6040516102979190610c18565b60405180910390f35b3480156102ac57600080fd5b506102b5610663565b6040516102c29190610acf565b60405180910390f35b6102d361068b565b005b3480156102e157600080fd5b506102ea6108cc565b005b7f000000000000000000000000000000000000000000000000000000000000000081565b600047905090565b6002818154811061032857600080fd5b906000526020600020016000915054906101000a900473ffffffffffffffffffffffffffffffffffffffff1681565b60016020528060005260406000206000915090505481565b7f000000000000000000000000000000000000000000000000000000000000000073ffffffffffffffffffffffffffffffffffffffff163373ffffffffffffffffffffffffffffffffffffffff16146103fd576040517f08c379a00000000000000000000000000000000000000000000000000000000081526004016103f490610cb6565b60405180910390fd5b7f000000000000000000000000000000000000000000000000000000000000000073ffffffffffffffffffffffffffffffffffffffff166108fc479081150290604051600060405180830381858888f19350505050158015610463573d6000803e3d6000fd5b50565b6000803373ffffffffffffffffffffffffffffffffffffffff1673ffffffffffffffffffffffffffffffffffffffff16815260200190815260200160002060000160009054906101000a900460ff166104f4576040517f08c379a00000000000000000000000000000000000000000000000000000000081526004016104eb90610d22565b60405180910390fd5b60007f0000000000000000000000000000000000000000000000000000000000000000905060008060003373ffffffffffffffffffffffffffffffffffffffff1673ffffffffffffffffffffffffffffffffffffffff16815260200190815260200160002060000160006101000a81548160ff0219169083151502179055507f1314fbd9b3f625c600265ea995805937eb1f31ad6be05ea00a535eca47c0006833826040516105a4929190610d42565b60405180910390a150565b60008060008373ffffffffffffffffffffffffffffffffffffffff1673ffffffffffffffffffffffffffffffffffffffff16815260200190815260200160002060000160009054906101000a900460ff169050919050565b60007f0000000000000000000000000000000000000000000000000000000000000000905090565b60006001905090565b60006020528060005260406000206000915090508060000160009054906101000a900460ff16905081565b60007f0000000000000000000000000000000000000000000000000000000000000000905090565b670de0b6b3a76400007f00000000000000000000000000000000000000000000000000000000000000006106bf9190610dc9565b341015610701576040517f08c379a00000000000000000000000000000000000000000000000000000000081526004016106f890610e46565b60405180910390fd5b6000803373ffffffffffffffffffffffffffffffffffffffff1673ffffffffffffffffffffffffffffffffffffffff16815260200190815260200160002060000160009054906101000a900460ff1615610790576040517f08c379a000000000000000000000000000000000000000000000000000000000815260040161078790610eb2565b60405180910390fd5b34600160003373ffffffffffffffffffffffffffffffffffffffff1673ffffffffffffffffffffffffffffffffffffffff168152602001908152602001600020819055506002339080600181540180825580915050600190039060005260206000200160009091909190916101000a81548173ffffffffffffffffffffffffffffffffffffffff021916908373ffffffffffffffffffffffffffffffffffffffff16021790555060016000803373ffffffffffffffffffffffffffffffffffffffff1673ffffffffffffffffffffffffffffffffffffffff16815260200190815260200160002060000160006101000a81548160ff0219169083151502179055507fb662f0beeb38e2aa790755858e25ee4edac93ec1ed278a0d1d28f86721a646b333346040516108c2929190610d42565b60405180910390a1565b6000803373ffffffffffffffffffffffffffffffffffffffff1673ffffffffffffffffffffffffffffffffffffffff16815260200190815260200160002060000160009054906101000a900460ff1661095a576040517f08c379a000000000000000000000000000000000000000000000000000000000815260040161095190610d22565b60405180910390fd5b6000600280549050600160003373ffffffffffffffffffffffffffffffffffffffff1673ffffffffffffffffffffffffffffffffffffffff168152602001908152602001600020546109ac9190610dc9565b7f00000000000000000000000000000000000000000000000000000000000000006109d79190610ed2565b90503373ffffffffffffffffffffffffffffffffffffffff166108fc829081150290604051600060405180830381858888f19350505050158015610a1f573d6000803e3d6000fd5b5060008060003373ffffffffffffffffffffffffffffffffffffffff1673ffffffffffffffffffffffffffffffffffffffff16815260200190815260200160002060000160006101000a81548160ff0219169083151502179055507f2dc4fba839a9fe8e3b5e9d22ce43d01c6a4445ed0d08a40f010bacb02a9774733382604051610aab929190610d42565b60405180910390a150565b6000819050919050565b610ac981610ab6565b82525050565b6000602082019050610ae46000830184610ac0565b92915050565b600080fd5b610af881610ab6565b8114610b0357600080fd5b50565b600081359050610b1581610aef565b92915050565b600060208284031215610b3157610b30610aea565b5b6000610b3f84828501610b06565b91505092915050565b600073ffffffffffffffffffffffffffffffffffffffff82169050919050565b6000610b7382610b48565b9050919050565b610b8381610b68565b82525050565b6000602082019050610b9e6000830184610b7a565b92915050565b610bad81610b68565b8114610bb857600080fd5b50565b600081359050610bca81610ba4565b92915050565b600060208284031215610be657610be5610aea565b5b6000610bf484828501610bbb565b91505092915050565b60008115159050919050565b610c1281610bfd565b82525050565b6000602082019050610c2d6000830184610c09565b92915050565b600082825260208201905092915050565b7f4f6e6c7920746865206f776e65722063616e2063616c6c20746869732066756e60008201527f6374696f6e000000000000000000000000000000000000000000000000000000602082015250565b6000610ca0602583610c33565b9150610cab82610c44565b604082019050919050565b60006020820190508181036000830152610ccf81610c93565b9050919050565b7f5573657220686173206e6f7420656e7465726564000000000000000000000000600082015250565b6000610d0c601483610c33565b9150610d1782610cd6565b602082019050919050565b60006020820190508181036000830152610d3b81610cff565b9050919050565b6000604082019050610d576000830185610b7a565b610d646020830184610ac0565b9392505050565b7f4e487b7100000000000000000000000000000000000000000000000000000000600052601260045260246000fd5b7f4e487b7100000000000000000000000000000000000000000000000000000000600052601160045260246000fd5b6000610dd482610ab6565b9150610ddf83610ab6565b925082610def57610dee610d6b565b5b828204905092915050565b7f496e73756666696369656e7420656e7472792066656500000000000000000000600082015250565b6000610e30601683610c33565b9150610e3b82610dfa565b602082019050919050565b60006020820190508181036000830152610e5f81610e23565b9050919050565b7f596f75206861766520616c726561647920656e74657265640000000000000000600082015250565b6000610e9c601883610c33565b9150610ea782610e66565b602082019050919050565b60006020820190508181036000830152610ecb81610e8f565b9050919050565b6000610edd82610ab6565b9150610ee883610ab6565b9250828201905080821115610f0057610eff610d9a565b5b9291505056fea2646970667358221220a20274746380dbbdd78584b943e5e5344dd03eb756d292febe1a5bb29ffaa97764736f6c63430008120033",
  "devdoc": {
    "kind": "dev",
    "methods": {},
    "version": 1
  },
  "userdoc": {
    "kind": "user",
    "methods": {},
    "version": 1
  },
  "storageLayout": {
    "storage": [
      {
        "astId": 13,
        "contract": "contracts/Gamble1.sol:Gamble1",
        "label": "users",
        "offset": 0,
        "slot": "0",
        "type": "t_mapping(t_address,t_struct(User)8_storage)"
      },
      {
        "astId": 17,
        "contract": "contracts/Gamble1.sol:Gamble1",
        "label": "gamblersToAmountBet",
        "offset": 0,
        "slot": "1",
        "type": "t_mapping(t_address,t_uint256)"
      },
      {
        "astId": 20,
        "contract": "contracts/Gamble1.sol:Gamble1",
        "label": "gamblers",
        "offset": 0,
        "slot": "2",
        "type": "t_array(t_address)dyn_storage"
      }
    ],
    "types": {
      "t_address": {
        "encoding": "inplace",
        "label": "address",
        "numberOfBytes": "20"
      },
      "t_array(t_address)dyn_storage": {
        "base": "t_address",
        "encoding": "dynamic_array",
        "label": "address[]",
        "numberOfBytes": "32"
      },
      "t_bool": {
        "encoding": "inplace",
        "label": "bool",
        "numberOfBytes": "1"
      },
      "t_mapping(t_address,t_struct(User)8_storage)": {
        "encoding": "mapping",
        "key": "t_address",
        "label": "mapping(address => struct Gamble1.User)",
        "numberOfBytes": "32",
        "value": "t_struct(User)8_storage"
      },
      "t_mapping(t_address,t_uint256)": {
        "encoding": "mapping",
        "key": "t_address",
        "label": "mapping(address => uint256)",
        "numberOfBytes": "32",
        "value": "t_uint256"
      },
      "t_struct(User)8_storage": {
        "encoding": "inplace",
        "label": "struct Gamble1.User",
        "members": [
          {
            "astId": 7,
            "contract": "contracts/Gamble1.sol:Gamble1",
            "label": "hasEntered",
            "offset": 0,
            "slot": "0",
            "type": "t_bool"
          }
        ],
        "numberOfBytes": "32"
      },
      "t_uint256": {
        "encoding": "inplace",
        "label": "uint256",
        "numberOfBytes": "32"
      }
    }
  }
}