{
  "address": "0xf921B4ffe127e9f4505d301a527D4ff76Ba80F45",
  "abi": [
    {
      "inputs": [
        {
          "internalType": "uint256",
          "name": "_entryFee",
          "type": "uint256"
        }
      ],
      "stateMutability": "nonpayable",
      "type": "constructor"
    },
    {
      "anonymous": false,
      "inputs": [
        {
          "indexed": false,
          "internalType": "address",
          "name": "user",
          "type": "address"
        },
        {
          "indexed": false,
          "internalType": "uint256",
          "name": "amount",
          "type": "uint256"
        }
      ],
      "name": "UserEntered",
      "type": "event"
    },
    {
      "anonymous": false,
      "inputs": [
        {
          "indexed": false,
          "internalType": "address",
          "name": "user",
          "type": "address"
        },
        {
          "indexed": false,
          "internalType": "uint256",
          "name": "amount",
          "type": "uint256"
        }
      ],
      "name": "UserLost",
      "type": "event"
    },
    {
      "anonymous": false,
      "inputs": [
        {
          "indexed": false,
          "internalType": "address",
          "name": "user",
          "type": "address"
        },
        {
          "indexed": false,
          "internalType": "uint256",
          "name": "amount",
          "type": "uint256"
        }
      ],
      "name": "UserWon",
      "type": "event"
    },
    {
      "inputs": [],
      "name": "enter",
      "outputs": [],
      "stateMutability": "payable",
      "type": "function"
    },
    {
      "inputs": [],
      "name": "entryFee",
      "outputs": [
        {
          "internalType": "uint256",
          "name": "",
          "type": "uint256"
        }
      ],
      "stateMutability": "view",
      "type": "function"
    },
    {
      "inputs": [
        {
          "internalType": "uint256",
          "name": "",
          "type": "uint256"
        }
      ],
      "name": "gamblers",
      "outputs": [
        {
          "internalType": "address",
          "name": "",
          "type": "address"
        }
      ],
      "stateMutability": "view",
      "type": "function"
    },
    {
      "inputs": [
        {
          "internalType": "address",
          "name": "",
          "type": "address"
        }
      ],
      "name": "gamblersToAmountBet",
      "outputs": [
        {
          "internalType": "uint256",
          "name": "",
          "type": "uint256"
        }
      ],
      "stateMutability": "view",
      "type": "function"
    },
    {
      "inputs": [],
      "name": "getBalance",
      "outputs": [
        {
          "internalType": "uint256",
          "name": "",
          "type": "uint256"
        }
      ],
      "stateMutability": "view",
      "type": "function"
    },
    {
      "inputs": [],
      "name": "getEntryFees",
      "outputs": [
        {
          "internalType": "uint256",
          "name": "",
          "type": "uint256"
        }
      ],
      "stateMutability": "view",
      "type": "function"
    },
    {
      "inputs": [],
      "name": "getOwner",
      "outputs": [
        {
          "internalType": "address",
          "name": "",
          "type": "address"
        }
      ],
      "stateMutability": "view",
      "type": "function"
    },
    {
      "inputs": [
        {
          "internalType": "address",
          "name": "_user",
          "type": "address"
        }
      ],
      "name": "getUserEntryStatus",
      "outputs": [
        {
          "internalType": "bool",
          "name": "",
          "type": "bool"
        }
      ],
      "stateMutability": "view",
      "type": "function"
    },
    {
      "inputs": [
        {
          "internalType": "address",
          "name": "user",
          "type": "address"
        }
      ],
      "name": "setResultStatusLive",
      "outputs": [],
      "stateMutability": "nonpayable",
      "type": "function"
    },
    {
      "inputs": [
        {
          "internalType": "address",
          "name": "user",
          "type": "address"
        }
      ],
      "name": "setResultStatusLost",
      "outputs": [],
      "stateMutability": "nonpayable",
      "type": "function"
    },
    {
      "inputs": [
        {
          "internalType": "address",
          "name": "user",
          "type": "address"
        }
      ],
      "name": "setResultStatusWon",
      "outputs": [],
      "stateMutability": "nonpayable",
      "type": "function"
    },
    {
      "inputs": [
        {
          "internalType": "address",
          "name": "_user",
          "type": "address"
        }
      ],
      "name": "settleTeamResult",
      "outputs": [],
      "stateMutability": "nonpayable",
      "type": "function"
    },
    {
      "inputs": [
        {
          "internalType": "address",
          "name": "",
          "type": "address"
        }
      ],
      "name": "users",
      "outputs": [
        {
          "internalType": "bool",
          "name": "hasEntered",
          "type": "bool"
        },
        {
          "internalType": "uint256",
          "name": "result",
          "type": "uint256"
        }
      ],
      "stateMutability": "view",
      "type": "function"
    },
    {
      "inputs": [],
      "name": "withdraw",
      "outputs": [],
      "stateMutability": "nonpayable",
      "type": "function"
    }
  ],
  "transactionHash": "0x42b311de7ce5e0b864d22ff4a8d0a8b80d841e686a338c07a4a49db1094b1871",
  "args": [
    "1000000000000000000"
  ],
  "numDeployments": 7,
  "solcInputHash": "22bedb2e5148e3ee7ff52fbd36195586",
  "bytecode": "0x60c060405260008060016101000a81548160ff0219169083151502179055503480156200002b57600080fd5b50604051620013b4380380620013b48339818101604052810190620000519190620000d4565b3373ffffffffffffffffffffffffffffffffffffffff1660808173ffffffffffffffffffffffffffffffffffffffff16815250508060a081815250505062000106565b600080fd5b6000819050919050565b620000ae8162000099565b8114620000ba57600080fd5b50565b600081519050620000ce81620000a3565b92915050565b600060208284031215620000ed57620000ec62000094565b5b6000620000fd84828501620000bd565b91505092915050565b60805160a05161125e620001566000396000818161034a015281816105c7015281816106c6015281816109b501526109e4015260008181610728015281816108030152610912015261125e6000f3fe6080604052600436106100dd5760003560e01c80637a53326f1161007f578063a87430ba11610059578063a87430ba146102ac578063b6af1b1b146102ea578063e262e40214610313578063e97dcb621461033e576100dd565b80637a53326f1461021b5780637fb82bdf14610258578063893d20e814610281576100dd565b80632aaf9c66116100bb5780632aaf9c66146101615780632d9f7a081461019e578063381ac076146101db5780633ccfd60b14610204576100dd565b8063072ea61c146100e257806312065fe01461010d5780631c0fcfdb14610138575b600080fd5b3480156100ee57600080fd5b506100f7610348565b6040516101049190610c84565b60405180910390f35b34801561011957600080fd5b5061012261036c565b60405161012f9190610c84565b60405180910390f35b34801561014457600080fd5b5061015f600480360381019061015a9190610d02565b610374565b005b34801561016d57600080fd5b5061018860048036038101906101839190610d5b565b6103bf565b6040516101959190610d97565b60405180910390f35b3480156101aa57600080fd5b506101c560048036038101906101c09190610d02565b6103fe565b6040516101d29190610c84565b60405180910390f35b3480156101e757600080fd5b5061020260048036038101906101fd9190610d02565b610416565b005b34801561021057600080fd5b50610219610726565b005b34801561022757600080fd5b50610242600480360381019061023d9190610d02565b61086a565b60405161024f9190610dcd565b60405180910390f35b34801561026457600080fd5b5061027f600480360381019061027a9190610d02565b6108c3565b005b34801561028d57600080fd5b5061029661090e565b6040516102a39190610d97565b60405180910390f35b3480156102b857600080fd5b506102d360048036038101906102ce9190610d02565b610936565b6040516102e1929190610de8565b60405180910390f35b3480156102f657600080fd5b50610311600480360381019061030c9190610d02565b610967565b005b34801561031f57600080fd5b506103286109b1565b6040516103359190610c84565b60405180910390f35b6103466109d9565b005b7f000000000000000000000000000000000000000000000000000000000000000081565b600047905090565b6002600160008373ffffffffffffffffffffffffffffffffffffffff1673ffffffffffffffffffffffffffffffffffffffff1681526020019081526020016000206001018190555050565b600381815481106103cf57600080fd5b906000526020600020016000915054906101000a900473ffffffffffffffffffffffffffffffffffffffff1681565b60026020528060005260406000206000915090505481565b600160008273ffffffffffffffffffffffffffffffffffffffff1673ffffffffffffffffffffffffffffffffffffffff16815260200190815260200160002060000160009054906101000a900460ff166104a5576040517f08c379a000000000000000000000000000000000000000000000000000000000815260040161049c90610e6e565b60405180910390fd5b6002600160008373ffffffffffffffffffffffffffffffffffffffff1673ffffffffffffffffffffffffffffffffffffffff168152602001908152602001600020600101541461052a576040517f08c379a000000000000000000000000000000000000000000000000000000000815260040161052190610eda565b60405180910390fd5b60018060008373ffffffffffffffffffffffffffffffffffffffff1673ffffffffffffffffffffffffffffffffffffffff1681526020019081526020016000206001015403610678576000600380549050600260008473ffffffffffffffffffffffffffffffffffffffff1673ffffffffffffffffffffffffffffffffffffffff168152602001908152602001600020546105c59190610f58565b7f00000000000000000000000000000000000000000000000000000000000000006105f09190610f89565b90508173ffffffffffffffffffffffffffffffffffffffff166108fc829081150290604051600060405180830381858888f19350505050158015610638573d6000803e3d6000fd5b507f2dc4fba839a9fe8e3b5e9d22ce43d01c6a4445ed0d08a40f010bacb02a977473828260405161066a929190610fbd565b60405180910390a150610723565b6000600160008373ffffffffffffffffffffffffffffffffffffffff1673ffffffffffffffffffffffffffffffffffffffff16815260200190815260200160002060010154036107225760007f000000000000000000000000000000000000000000000000000000000000000090507f1314fbd9b3f625c600265ea995805937eb1f31ad6be05ea00a535eca47c000688282604051610718929190610fbd565b60405180910390a1505b5b50565b7f000000000000000000000000000000000000000000000000000000000000000073ffffffffffffffffffffffffffffffffffffffff163373ffffffffffffffffffffffffffffffffffffffff16146107b4576040517f08c379a00000000000000000000000000000000000000000000000000000000081526004016107ab90611058565b60405180910390fd5b60008054906101000a900460ff16610801576040517f08c379a00000000000000000000000000000000000000000000000000000000081526004016107f8906110c4565b60405180910390fd5b7f000000000000000000000000000000000000000000000000000000000000000073ffffffffffffffffffffffffffffffffffffffff166108fc479081150290604051600060405180830381858888f19350505050158015610867573d6000803e3d6000fd5b50565b6000600160008373ffffffffffffffffffffffffffffffffffffffff1673ffffffffffffffffffffffffffffffffffffffff16815260200190815260200160002060000160009054906101000a900460ff169050919050565b6000600160008373ffffffffffffffffffffffffffffffffffffffff1673ffffffffffffffffffffffffffffffffffffffff1681526020019081526020016000206001018190555050565b60007f0000000000000000000000000000000000000000000000000000000000000000905090565b60016020528060005260406000206000915090508060000160009054906101000a900460ff16908060010154905082565b60018060008373ffffffffffffffffffffffffffffffffffffffff1673ffffffffffffffffffffffffffffffffffffffff1681526020019081526020016000206001018190555050565b60007f0000000000000000000000000000000000000000000000000000000000000000905090565b670de0b6b3a76400007f0000000000000000000000000000000000000000000000000000000000000000610a0d9190610f58565b341015610a4f576040517f08c379a0000000000000000000000000000000000000000000000000000000008152600401610a4690611130565b60405180910390fd5b600060019054906101000a900460ff1615610a9f576040517f08c379a0000000000000000000000000000000000000000000000000000000008152600401610a969061119c565b60405180910390fd5b600160003373ffffffffffffffffffffffffffffffffffffffff1673ffffffffffffffffffffffffffffffffffffffff16815260200190815260200160002060000160009054906101000a900460ff1615610b2f576040517f08c379a0000000000000000000000000000000000000000000000000000000008152600401610b2690611208565b60405180910390fd5b34600260003373ffffffffffffffffffffffffffffffffffffffff1673ffffffffffffffffffffffffffffffffffffffff168152602001908152602001600020819055506003339080600181540180825580915050600190039060005260206000200160009091909190916101000a81548173ffffffffffffffffffffffffffffffffffffffff021916908373ffffffffffffffffffffffffffffffffffffffff16021790555060018060003373ffffffffffffffffffffffffffffffffffffffff1673ffffffffffffffffffffffffffffffffffffffff16815260200190815260200160002060000160006101000a81548160ff0219169083151502179055507fb662f0beeb38e2aa790755858e25ee4edac93ec1ed278a0d1d28f86721a646b33334604051610c61929190610fbd565b60405180910390a1565b6000819050919050565b610c7e81610c6b565b82525050565b6000602082019050610c996000830184610c75565b92915050565b600080fd5b600073ffffffffffffffffffffffffffffffffffffffff82169050919050565b6000610ccf82610ca4565b9050919050565b610cdf81610cc4565b8114610cea57600080fd5b50565b600081359050610cfc81610cd6565b92915050565b600060208284031215610d1857610d17610c9f565b5b6000610d2684828501610ced565b91505092915050565b610d3881610c6b565b8114610d4357600080fd5b50565b600081359050610d5581610d2f565b92915050565b600060208284031215610d7157610d70610c9f565b5b6000610d7f84828501610d46565b91505092915050565b610d9181610cc4565b82525050565b6000602082019050610dac6000830184610d88565b92915050565b60008115159050919050565b610dc781610db2565b82525050565b6000602082019050610de26000830184610dbe565b92915050565b6000604082019050610dfd6000830185610dbe565b610e0a6020830184610c75565b9392505050565b600082825260208201905092915050565b7f5573657220686173206e6f7420656e7465726564000000000000000000000000600082015250565b6000610e58601483610e11565b9150610e6382610e22565b602082019050919050565b60006020820190508181036000830152610e8781610e4b565b9050919050565b7f526573756c7420616c7265616479206465636964656400000000000000000000600082015250565b6000610ec4601683610e11565b9150610ecf82610e8e565b602082019050919050565b60006020820190508181036000830152610ef381610eb7565b9050919050565b7f4e487b7100000000000000000000000000000000000000000000000000000000600052601260045260246000fd5b7f4e487b7100000000000000000000000000000000000000000000000000000000600052601160045260246000fd5b6000610f6382610c6b565b9150610f6e83610c6b565b925082610f7e57610f7d610efa565b5b828204905092915050565b6000610f9482610c6b565b9150610f9f83610c6b565b9250828201905080821115610fb757610fb6610f29565b5b92915050565b6000604082019050610fd26000830185610d88565b610fdf6020830184610c75565b9392505050565b7f4f6e6c7920746865206f776e65722063616e2063616c6c20746869732066756e60008201527f6374696f6e000000000000000000000000000000000000000000000000000000602082015250565b6000611042602583610e11565b915061104d82610fe6565b604082019050919050565b6000602082019050818103600083015261107181611035565b9050919050565b7f7761697420666f72206d6174636820636f6d706c6574696f6e00000000000000600082015250565b60006110ae601983610e11565b91506110b982611078565b602082019050919050565b600060208201905081810360008301526110dd816110a1565b9050919050565b7f496e73756666696369656e7420656e7472792066656500000000000000000000600082015250565b600061111a601683610e11565b9150611125826110e4565b602082019050919050565b600060208201905081810360008301526111498161110d565b9050919050565b7f6d6174636820616c726561647920737461727465640000000000000000000000600082015250565b6000611186601583610e11565b915061119182611150565b602082019050919050565b600060208201905081810360008301526111b581611179565b9050919050565b7f596f75206861766520616c726561647920656e74657265640000000000000000600082015250565b60006111f2601883610e11565b91506111fd826111bc565b602082019050919050565b60006020820190508181036000830152611221816111e5565b905091905056fea26469706673582212208a95ed0747ee6b5b220a8050c4f922462181d55f6a17dd5be72692993bb1b38064736f6c63430008120033",
  "devdoc": {
    "kind": "dev",
    "methods": {},
    "version": 1
  },
  "userdoc": {
    "kind": "user",
    "methods": {},
    "version": 1
  },
  "storageLayout": {
    "storage": [
      {
        "astId": 7,
        "contract": "contracts/Gamble.sol:Gamble",
        "label": "hasMatchCompleted",
        "offset": 0,
        "slot": "0",
        "type": "t_bool"
      },
      {
        "astId": 10,
        "contract": "contracts/Gamble.sol:Gamble",
        "label": "hasMatchStarted",
        "offset": 1,
        "slot": "0",
        "type": "t_bool"
      },
      {
        "astId": 89,
        "contract": "contracts/Gamble.sol:Gamble",
        "label": "users",
        "offset": 0,
        "slot": "1",
        "type": "t_mapping(t_address,t_struct(User)84_storage)"
      },
      {
        "astId": 93,
        "contract": "contracts/Gamble.sol:Gamble",
        "label": "gamblersToAmountBet",
        "offset": 0,
        "slot": "2",
        "type": "t_mapping(t_address,t_uint256)"
      },
      {
        "astId": 96,
        "contract": "contracts/Gamble.sol:Gamble",
        "label": "gamblers",
        "offset": 0,
        "slot": "3",
        "type": "t_array(t_address)dyn_storage"
      }
    ],
    "types": {
      "t_address": {
        "encoding": "inplace",
        "label": "address",
        "numberOfBytes": "20"
      },
      "t_array(t_address)dyn_storage": {
        "base": "t_address",
        "encoding": "dynamic_array",
        "label": "address[]",
        "numberOfBytes": "32"
      },
      "t_bool": {
        "encoding": "inplace",
        "label": "bool",
        "numberOfBytes": "1"
      },
      "t_mapping(t_address,t_struct(User)84_storage)": {
        "encoding": "mapping",
        "key": "t_address",
        "label": "mapping(address => struct Gamble.User)",
        "numberOfBytes": "32",
        "value": "t_struct(User)84_storage"
      },
      "t_mapping(t_address,t_uint256)": {
        "encoding": "mapping",
        "key": "t_address",
        "label": "mapping(address => uint256)",
        "numberOfBytes": "32",
        "value": "t_uint256"
      },
      "t_struct(User)84_storage": {
        "encoding": "inplace",
        "label": "struct Gamble.User",
        "members": [
          {
            "astId": 81,
            "contract": "contracts/Gamble.sol:Gamble",
            "label": "hasEntered",
            "offset": 0,
            "slot": "0",
            "type": "t_bool"
          },
          {
            "astId": 83,
            "contract": "contracts/Gamble.sol:Gamble",
            "label": "result",
            "offset": 0,
            "slot": "1",
            "type": "t_uint256"
          }
        ],
        "numberOfBytes": "64"
      },
      "t_uint256": {
        "encoding": "inplace",
        "label": "uint256",
        "numberOfBytes": "32"
      }
    }
  }
}